{
  "contractName": "Dice",
  "abi": [
    {
      "constant": true,
      "inputs": [],
      "name": "counter",
      "outputs": [
        {
          "name": "",
          "type": "uint256"
        }
      ],
      "payable": false,
      "stateMutability": "view",
      "type": "function",
      "signature": "0x61bc221a"
    },
    {
      "constant": true,
      "inputs": [
        {
          "name": "",
          "type": "address"
        }
      ],
      "name": "bets",
      "outputs": [
        {
          "name": "currentBet",
          "type": "uint256"
        },
        {
          "name": "isBetSet",
          "type": "bool"
        },
        {
          "name": "destiny",
          "type": "uint8"
        },
        {
          "name": "amountBet",
          "type": "uint256"
        }
      ],
      "payable": false,
      "stateMutability": "view",
      "type": "function",
      "signature": "0x89a78f1a"
    },
    {
      "constant": true,
      "inputs": [],
      "name": "nonce",
      "outputs": [
        {
          "name": "",
          "type": "uint256"
        }
      ],
      "payable": false,
      "stateMutability": "view",
      "type": "function",
      "signature": "0xaffed0e0"
    },
    {
      "constant": true,
      "inputs": [],
      "name": "totalBets",
      "outputs": [
        {
          "name": "",
          "type": "uint256"
        }
      ],
      "payable": false,
      "stateMutability": "view",
      "type": "function",
      "signature": "0xbefa1e2f"
    },
    {
      "constant": true,
      "inputs": [
        {
          "name": "",
          "type": "uint256"
        }
      ],
      "name": "players",
      "outputs": [
        {
          "name": "",
          "type": "address"
        }
      ],
      "payable": false,
      "stateMutability": "view",
      "type": "function",
      "signature": "0xf71d96cb"
    },
    {
      "anonymous": false,
      "inputs": [
        {
          "indexed": false,
          "name": "bidder",
          "type": "address"
        },
        {
          "indexed": false,
          "name": "currentBet",
          "type": "uint256"
        }
      ],
      "name": "NewBetIsSet",
      "type": "event",
      "signature": "0x7095c7a112f393c7fc30b17741f7ada8cd97245e16b769dc3b7fa048a46aaad2"
    },
    {
      "constant": false,
      "inputs": [
        {
          "name": "bet",
          "type": "uint256"
        }
      ],
      "name": "getNewbet",
      "outputs": [
        {
          "name": "",
          "type": "uint256"
        }
      ],
      "payable": true,
      "stateMutability": "payable",
      "type": "function",
      "signature": "0x0805dd0b"
    },
    {
      "constant": false,
      "inputs": [],
      "name": "distributeWinnings",
      "outputs": [],
      "payable": false,
      "stateMutability": "nonpayable",
      "type": "function",
      "signature": "0x7d2026cd"
    },
    {
      "constant": false,
      "inputs": [],
      "name": "distributeTie",
      "outputs": [],
      "payable": false,
      "stateMutability": "nonpayable",
      "type": "function",
      "signature": "0x917ee0e5"
    },
    {
      "constant": false,
      "inputs": [],
      "name": "random",
      "outputs": [
        {
          "name": "",
          "type": "uint256"
        }
      ],
      "payable": false,
      "stateMutability": "nonpayable",
      "type": "function",
      "signature": "0x5ec01e4d"
    }
  ],
  "bytecode": "0x608060405234801561001057600080fd5b5061070a806100206000396000f3fe608060405260043610610099576000357c0100000000000000000000000000000000000000000000000000000000900463ffffffff1680630805dd0b1461009e5780635ec01e4d146100e057806361bc221a1461010b5780637d2026cd1461013657806389a78f1a1461014d578063917ee0e5146101d1578063affed0e0146101e8578063befa1e2f14610213578063f71d96cb1461023e575b600080fd5b6100ca600480360360208110156100b457600080fd5b81019080803590602001909291905050506102b9565b6040518082815260200191505060405180910390f35b3480156100ec57600080fd5b506100f56104b8565b6040518082815260200191505060405180910390f35b34801561011757600080fd5b50610120610568565b6040518082815260200191505060405180910390f35b34801561014257600080fd5b5061014b61056e565b005b34801561015957600080fd5b5061019c6004803603602081101561017057600080fd5b81019080803573ffffffffffffffffffffffffffffffffffffffff1690602001909291905050506105c0565b60405180858152602001841515151581526020018360ff1660ff16815260200182815260200194505050505060405180910390f35b3480156101dd57600080fd5b506101e661060a565b005b3480156101f457600080fd5b506101fd610694565b6040518082815260200191505060405180910390f35b34801561021f57600080fd5b5061022861069a565b6040518082815260200191505060405180910390f35b34801561024a57600080fd5b506102776004803603602081101561026157600080fd5b81019080803590602001909291905050506106a0565b604051808273ffffffffffffffffffffffffffffffffffffffff1673ffffffffffffffffffffffffffffffffffffffff16815260200191505060405180910390f35b600081600460003373ffffffffffffffffffffffffffffffffffffffff1673ffffffffffffffffffffffffffffffffffffffff1681526020019081526020016000206002018190555061030a6104b8565b600460003373ffffffffffffffffffffffffffffffffffffffff1673ffffffffffffffffffffffffffffffffffffffff16815260200190815260200160002060000181905550816000540160008190555060023390806001815401808255809150509060018203906000526020600020016000909192909190916101000a81548173ffffffffffffffffffffffffffffffffffffffff021916908373ffffffffffffffffffffffffffffffffffffffff160217905550507f7095c7a112f393c7fc30b17741f7ada8cd97245e16b769dc3b7fa048a46aaad233600460003373ffffffffffffffffffffffffffffffffffffffff1673ffffffffffffffffffffffffffffffffffffffff16815260200190815260200160002060000154604051808373ffffffffffffffffffffffffffffffffffffffff1673ffffffffffffffffffffffffffffffffffffffff1681526020018281526020019250505060405180910390a1600460003373ffffffffffffffffffffffffffffffffffffffff1673ffffffffffffffffffffffffffffffffffffffff168152602001908152602001600020600001549050919050565b60008060074233600354604051602001808481526020018373ffffffffffffffffffffffffffffffffffffffff1673ffffffffffffffffffffffffffffffffffffffff166c010000000000000000000000000281526014018281526020019350505050604051602081830303815290604052805190602001206001900481151561053e57fe5b069050600181101561054f57600190505b6003600081548092919060010191905055508091505090565b60015481565b3373ffffffffffffffffffffffffffffffffffffffff166108fc6000549081150290604051600060405180830381858888f193505050501580156105b6573d6000803e3d6000fd5b5060008081905550565b60046020528060005260406000206000915090508060000154908060010160009054906101000a900460ff16908060010160019054906101000a900460ff16908060020154905084565b6000600260005481151561061a57fe5b0490503373ffffffffffffffffffffffffffffffffffffffff166108fc829081150290604051600060405180830381858888f19350505050158015610663573d6000803e3d6000fd5b5060016000815480929190600101919050555060026001541415610691576000808190555060006001819055505b50565b60035481565b60005481565b6002818154811015156106af57fe5b906000526020600020016000915054906101000a900473ffffffffffffffffffffffffffffffffffffffff168156fea165627a7a7230582063bbc446d3049783b69e46f703cc63ce4b564815e906058f81dd10ae90f8a5370029",
  "source": "pragma solidity ^0.5.0;\n\ncontract Dice{\n\n    uint256 public totalBets;\n    uint256 public counter;\n    address payable[] public players;\n    uint public nonce;\n\n\tstruct Bet{\n\t\tuint256  currentBet;\n\t\tbool  isBetSet; //default value is false\n\t\tuint8  destiny;\n\t\tuint256  amountBet;\n\t}\n\n\tmapping(address => Bet) public bets;\n\n    event NewBetIsSet(address bidder , uint256 currentBet);\n\n\tfunction getNewbet(uint256 bet) payable public returns(uint256){\n\n\t\tbets[msg.sender].amountBet = bet;\n\t\tbets[msg.sender].currentBet = random();\n\t\ttotalBets = totalBets + bet;\n\t\tplayers.push(msg.sender);\n        emit NewBetIsSet(msg.sender,bets[msg.sender].currentBet);\n\t\treturn (bets[msg.sender].currentBet);\n\t}\n\n\n\tfunction distributeWinnings() public {\n\t    msg.sender.transfer(totalBets);\n        totalBets = 0;\n    }\n\n    function distributeTie() public {\n        uint256 winnings = totalBets / 2;\n        msg.sender.transfer(winnings);\n        counter++;\n        if (counter == 2) {\n            totalBets = 0;\n            counter = 0;\n        }\n    }\n\n\n    function random() public returns (uint256) {\n        uint256 randomnumber = uint(keccak256(abi.encodePacked(now, msg.sender, nonce))) % 7;\n        if (randomnumber < 1){\n            randomnumber = 1;\n        }\n        nonce++;\n        return randomnumber;\n    }\n}\n",
  "sourcePath": "C:/Users/danfa/Projects/Main_CA/src/logintest/client/contracts/Dice.sol",
  "compiler": {
    "name": "solc",
    "version": "0.5.0+commit.1d4f565a.Emscripten.clang"
  },
  "schemaVersion": "3.0.3",
  "updatedAt": "2019-03-17T12:10:49.182Z",
  "devdoc": {
    "methods": {}
  },
  "userdoc": {
    "methods": {}
  }
}